:020000040800F2
:1000000070070020890100086B1800089916000885
:100010006918000865030008331B00080000000091
:100020000000000000000000000000006F18000841
:1000300067030008000000006D1800087118000830
:10004000A3010008A3010008A3010008A301000800
:10005000A3010008A3010008A3010008A3010008F0
:10006000A3010008A3010008A3010008A3010008E0
:10007000A3010008A3010008A3010008A3010008D0
:10008000A3010008A3010008A3010008A3010008C0
:10009000A3010008A3010008A3010008A3010008B0
:1000A000A3010008A3010008A3010008A3010008A0
:1000B000A3010008A3010008A3010008A301000890
:1000C000A3010008A3010008A3010008A301000880
:1000D000A3010008A3010008A3010008A301000870
:1000E000A3010008A3010008A301000800F002F822
:1000F00000F03AF80AA090E8000C82448344AAF188
:100100000107DA4501D100F02FF8AFF2090EBAE885
:100110000F0013F0010F18BFFB1A43F0010318473B
:10012000181B0000381B0000103A24BF78C878C1A3
:10013000FAD8520724BF30C830C144BF04680C60ED
:10014000704700000023002400250026103A28BF35
:1001500078C1FBD8520728BF30C148BF0B60704739
:100160001FB51FBD10B510BD00F058F81146FFF7C0
:10017000F7FF01F0EFFC00F076F803B4FFF7F2FFB1
:1001800003BC00F07DF8000009488047094800479B
:10019000FEE7FEE7FEE7FEE7FEE7FEE7FEE7FEE737
:1001A000FEE7FEE704480549054A064B7047000094
:1001B000ED180008ED000008700100207007002015
:1001C00070030020700300204FF0000200B51346BA
:1001D00094469646203922BFA0E80C50A0E80C5067
:1001E000B1F12001BFF4F7AF090728BFA0E80C5018
:1001F00048BF0CC05DF804EB890028BF40F8042B11
:1002000008BF704748BF20F8022B11F0804F18BF7D
:1002100000F8012B7047704770477047754600F033
:100220002BF8AE4605006946534620F00700854688
:1002300018B020B5FFF7B6FFBDE820404FF000062C
:100240004FF000074FF000084FF0000B21F00701BE
:10025000AC46ACE8C009ACE8C009ACE8C009ACE801
:10026000C0098D46704710B50446AFF300802046A4
:10027000BDE81040FFF781BF004870470C01002027
:1002800001491820ABBEFEE72600020070470000BF
:1002900070B5044600688168C943C90717D18168F1
:1002A00021F00101816000F00FFC05460AE000BF6B
:1002B00000F00AFC401B022804D920688068C04373
:1002C000C00706D020688068C043C007F0D0002077
:1002D00070BDA06A40F01000A062E06A40F001002A
:1002E000E062012070BD0000F8B5002604460096CB
:1002F00000688168C943C9072DD0816841F00101B8
:100300008160164816490068B0FBF1F000E0401E1D
:1003100000900028FBD100F0D7FB054616E000BF97
:1003200000F0D2FB401B022810D920688068C0432F
:10033000C0070BD0A06A40F01000A062E06A40F055
:100340000100E06284F824600120F8BD2068806824
:10035000C043C007E4D10020F8BD00001800002011
:1003600040420F00FEE7704772B6FEE7F8B5002581
:100370000446009590F8240001280BD0012084F851
:1003800024002046FFF784FF2046FFF7ADFF06005C
:1003900002D050E00220F8BDA06A20F4885040F05E
:1003A0000200A062022000F01FFC25490968B1FB91
:1003B000F0F0400000E0401E00900028FBD12068D3
:1003C000816841F00801816000F07EFB074608E08B
:1003D00000F07AFBC01B0A2803D920688068000758
:1003E00015D4206880680007F2D42068816841F045
:1003F0000401816000F068FB074612E000F064FB36
:10040000C01B0A280DD920688068400709D5A06A5A
:1004100020F0020040F01000A06284F82450012077
:10042000F8BD206880684007E8D4A06A20F0020088
:1004300040F00100A06284F824503046F8BD00006E
:1004400018000020F8B50024009490F824202546D8
:10045000012A12D0012280F824204A681F23072A8B
:100460000DD20668776B521E02EB820293409F43C7
:100470000B6893401F43776319E00220F8BD0668BC
:100480000D2A0AD2376BD21F02EB820293409F43A0
:100490000B6893401F43376309E0F76A0D3A02EB9C
:1004A000820293409F430B6893401F43F7620A68A0
:1004B000072306680A2A0AD3F7680A3A02EB4202BF
:1004C00093409F438B6893401F43F76008E0376970
:1004D00002EB420293409F438B6893401F43376176
:1004E0000A68102A01D0112A20D1124B02689A42C0
:1004F00017D193681B0219D4936843F400039360E7
:100500000968102912D10C490C4A0968B1FBF2F1B3
:1005100001EB8101490000E0491E00910029FBD157
:1005200004E0816A41F020018162012480F82450B6
:100530002046F8BD002401401800002040420F0072
:100540000068C06C704700002DE9F0414FF00007D3
:1005500004003D467ED0A06A002628B9E66284F8F1
:100560002460204600F07EF82046FFF791FEA16A45
:10057000C90600D420B1A06A40F01000A06269E072
:10058000A16A21F4885141F00201A1626268E16927
:10059000237B0A4347EA43010A43A1684FF480776B
:1005A000B94209D0012907D05FF0000194F814C0C6
:1005B000BCF1010F02D00AE03946F7E7F3B1A36AB4
:1005C00043F02003A362E36A43F00103E36223687C
:1005D000D3F804C02CF4694C4CEA010CC3F804C0F5
:1005E00021688B68DFF870C003EA0C0313438B604B
:1005F000A168B9420BD0012909D00CE0DFF85CC03A
:10060000A3690CEB43330B4343F40061DFE7218A1A
:100610000D05A5F580152168CB6A23F470032B43E3
:10062000CB62216889680E4B1940914208D1E6627D
:10063000A16A21F0020141F00101A162BDE8F0814F
:10064000A06A20F0020040F01000A062E06A40F0D2
:100650000100E0620120F1E7FDF7E1FF00E0FFFFAC
:10066000FE0E1FFF10B586B000210091019102918E
:1006700003911A4C03681A4903221A48A34211D164
:100680008B6943F400738B618B6903F400730493EB
:100690008B6943F004038B61896901F004010491C3
:1006A000082113E0104CA34215D18B6943F48063F9
:1006B0008B618B6903F4806304938B6943F00403BB
:1006C0008B61896901F0040104910221CDE90012D6
:1006D000694600F009F906B010BD00000024014091
:1006E0000010024000080140002801402DE9F843B5
:1006F00000270D460446009700F0E6F98046206882
:100700008168C90508D5A06A40F02000A06284F87D
:1007100024700120BDE8F8834168C90503D4C06A8C
:1007200010F4700F2AD0022000F05EFA3B490968ED
:10073000B1FBF0F62068036939490B424FEA6101C9
:100740004FEAA1121FD1C3684FEA611C13EA0C0FD4
:1007500019D103690B4225D1C068104222D114205F
:1007600023E0681C0AD02DB100F0AEF9A0EB080020
:10077000A84203D920680068800725D52068006852
:100780008007EED52DE003690B4202D1C16811420A
:1007900006D0026923490A4206D1C068084203D143
:1007A000542002E0292000E0FC204643009816E097
:1007B000681C11D02DB100F087F9A0EB0800A84209
:1007C0000AD90098B04207D2A06A40F00400A062A3
:1007D00084F8247003209DE70098401C0090B042EC
:1007E000E6D321686FF012000860A06A40F4007040
:1007F000A06220688068C0F3424007280CD1207BAB
:1008000050B9A06A20F48070A062A06AC00403D42A
:10081000A06A40F00100A06200207BE718000020E1
:10082000244992244992240070B5044690F824008B
:1008300001280DD0012084F824002046FFF754FD44
:1008400002004FF0000005D084F82400104670BD6F
:10085000022070BDA16A40F20123994341F48071E6
:10086000A1621F4D23681F49AB4218D10E6816F4D0
:10087000702F14D0A66A46F48016A6620E6876051C
:1008800005D5A66A26F4005646F48056A662A66AE6
:10089000F6040AD5E66A26F00606E66206E0A66ACF
:1008A00026F48016A6625E68E9E7E06284F8240018
:1008B0006FF00200186020688368C3F34243072B7F
:1008C00005D1A84208D1096811F4702F04D08168BD
:1008D00041F480118160B9E7816841F4A001F9E732
:1008E00000280140042401402DE9F84FDFF8B891B9
:1008F0000024A9F1040B23460F2709F1040AABF1E8
:10090000040EC9E00125A5402A40AA427DD1674EC8
:10091000D1F804C0ACEB0608B44532D014DCBCF10D
:10092000030F3AD009DCBCF1000F2AD0BCF1010F53
:100930001CD0BCF1020F31D11DE0BCF1110F17D05A
:10094000BCF1120F2AD119E0B8F5881F19D006DCC6
:10095000B8F5803F15D0B8F5801F1FD111E0B8F56C
:10096000001F0ED0B8F5041F18D10AE0CB6815E0BF
:10097000CB681B1D12E0CB6808330FE0CB680C334B
:100980000CE08B682BB1012B4FF0080303D04561BD
:1009900004E0042302E0056100E00023FF2A01D8FF
:1009A000064601E000F104064FEA840501D9A5F1ED
:1009B0002005D6F8008007FA05FC28EA0C0803FA9F
:1009C00005F548EA0508C6F800804D68ED0062D5D7
:1009D000374DAE6946F00106AE61AD6924F00306FD
:1009E00005F001050095334D06EB050CDCF80850C9
:1009F000A607360F07FA06F825EA0805DFF8B880DB
:100A0000404503D14FF0000817E044E0DFF8AC8028
:100A1000404502D14FF001080FE0DFF8A4804045C7
:100A200002D14FF0020808E0DFF89880404502D17B
:100A30004FF0030801E04FF0040808FA06F848EA0E
:100A40000508CCF808804D68D9F80060ED024D46E5
:100A500001D5164300E096432E604D68DAF8006039
:100A6000AD02554601D5164300E096432E604D6811
:100A7000DBF80060AD035D4601D5164300E0964308
:100A80002E604D68DEF80060ED03754601D5164313
:100A900000E096432E60641C0D682A46E5407FF412
:100AA00031AFBDE8F88F00000804014000001110CC
:100AB000001002400000014000080140000C01400D
:100AC0000010014000140140014880687047000098
:100AD0000C00002002488168027811448160704750
:100AE0000C000020074810B5016841F010010160BA
:100AF000032000F067F80F2000F006F800F024F85B
:100B0000002010BD0020024070B50D4D04464FF48A
:100B10007A712878B1FBF0F00A490968B1FBF0F06E
:100B200000F086FB48B9102C07D200222146501E47
:100B300000F028F800206C6070BD012070BD00003E
:100B40000C000020180000200C4808B5816941F015
:100B500001018161816901F001010091C16941F0E8
:100B60008051C161C06900F0805000900448416824
:100B700021F0E06141F00071416008BD00100240C9
:100B800000000140F0B40E4B1B680C46C3F3022377
:100B9000C3F10705042D00D90425191D072901D229
:100BA000002300E0DB1E012606FA05F1491E214064
:100BB00099409E40761E16403143F0BC00F0BABF0B
:100BC0000CED00E0064900F0070208684FF6FF034D
:100BD000184040EA0220034A1043086070470000B2
:100BE0000CED00E00000FA0510B501460020234C92
:100BF000012922D0022939D010291DD1616822682B
:100C0000D20119D51E48C1F38342C903805C0AD5BD
:100C100061681B4AC1F34041921E515C194AB2FB04
:100C2000F1F1484301E0184948436168490203D49F
:100C300040000321B0FBF1F010BD226AC2F3012194
:100C4000012903D1920701D5C80310BD022905D19E
:100C5000626A920702D549F6404010BD0329FCD1D3
:100C600021688903F9D54FF2244010BD00F01AF92C
:100C70006168C1F38131491C4900DBE70010024083
:100C8000101C000800127A0000093D002DE9F8430D
:100C900005460078354CC00754D0E0690026C000F6
:100CA00008D4E06940F08050E061E069012600F07E
:100CB000805000902E480168C90512D40168804612
:100CC00041F480710160FFF7FFFE074605E000BFB9
:100CD000FFF7FAFEC01B642823D8D8F80000C0052F
:100CE000F6D5206A10F4407021D0A98801F4407133
:100CF00081421CD0206A1F49012220F440700A6002
:100D000000220A602062C00711D0FFF7DDFE07460F
:100D100041F2883808E000BFFFF7D6FEC11B41450D
:100D200002D90320BDE8F883206A8007F4D5206A41
:100D3000696820F44070084320621EB1E06920F029
:100D40008050E0612878800705D56068A96820F4A4
:100D50004040084360602878C00605D56068E968AF
:100D600020F48000084360600020DBE700100240B0
:100D700000700040400442422DE9F0470F46050054
:100D800061D0434E306800F00700B84209D23068A5
:100D900020F0070038433060306800F00700B842A8
:100DA00051D128683B4C810712D5400703D56068B4
:100DB00040F4E06060602878000703D5606840F484
:100DC000605060606068A96820F0F00008436060CF
:100DD0002878C00728D06868012810D02168022828
:100DE00010D0890700292EDA616821F00301014340
:100DF0006160FFF769FE804641F288390DE02168A5
:100E00008903EFE78901EDE7FFF75EFEA0EB08013C
:100E1000494502D90320BDE8F0876068696800F0A1
:100E20000C00B0EB810FEFD1306800F00700B84242
:100E30000BD9306820F0070038433060306800F08C
:100E40000700B84201D00120E5E72878400705D522
:100E50006068E96820F4E060084360602878000773
:100E600006D56068296920F4605040EAC1006060DE
:100E700000F028F86168084AC1F30311515CC840CA
:100E80000649086006480068FFF73EFE0020C2E7FA
:100E90000020024000100240201C00081800002022
:100EA000100000200448054900684968044AC1F35D
:100EB000C221515CC8407047180000200010024059
:100EC000301C00080E4A51680E4801F00C03042B38
:100ED00011D0082B0FD10C48C1F38343C903C05C68
:100EE0000AD55168084AC1F34041921E515C054A37
:100EF0005043B0FBF1F0704704494843704700008D
:100F00000010024000127A00FE1B000800093D009C
:100F10002DE9F84F040070D02078C04DC00749D0AB
:100F20006868C0F38100012807D06868C0F38100B9
:100F3000022809D16868C00306D52868800339D51E
:100F400060680028E7D035E06068B0F5803F0BD0DE
:100F500010B1B0F5A02F11D0286820F4803028609F
:100F6000286820F4802002E0286840F4803028605F
:100F7000606890B1FFF7A8FD06460AE0286840F4D3
:100F800080202860F0E700BFFFF79EFD801B6428EB
:100F900073D828688003F7D50CE0FFF795FD064667
:100FA00005E000BFFFF790FD801B6428F0D828689B
:100FB0008003F7D420789A4E80074FF001094FF054
:100FC000000839D5686810F00C0F07D06868C0F3C6
:100FD0008100022809D16868C00306D42868800708
:100FE00014D52069012808D110E02069B0B1C6F8F5
:100FF0000090FFF769FD074605E00AE1FFF764FD91
:10100000C01B0228C4D828688007F7D52868616902
:1010100020F0F80040EAC10028600DE0C6F800802A
:10102000FFF752FD074604E0FFF74EFDC01B022804
:1010300023D828688007F7D4207800072CD5794872
:10104000A169D9B1C0F80090FFF73EFD074604E062
:10105000FFF73AFDC01B02280FD8686A8007F7D552
:1010600071484FF4FA510068B0FBF1F0009000BFF6
:101070000098411E0091FAD20EE080E0C0F8008096
:10108000FFF722FD074604E0FFF71EFDC01B022804
:1010900075D8686A8007F7D42078400760D5E8697A
:1010A0000027C00008D4E86940F08050E861E86992
:1010B000012700F0805000905C480168C90513D4F6
:1010C0000168834641F480710160FFF7FDFC8246B0
:1010D00006E000BFFFF7F8FCA0EB0A0064284ED83A
:1010E000DBF80000C005F5D5E06801280AD008B19A
:1010F000052813D0286A20F001002862286A20F011
:10110000040002E0286A40F001002862E06841F231
:10111000883B98B1FFF7D8FC82460BE0286A40F084
:1011200004002862EEE700BFFFF7CEFCA0EB0A0147
:1011300059455AD8286A8007F6D50CE0FFF7C4FC59
:10114000824605E0FFF7C0FCA0EB0A0159454CD8E8
:10115000286A8007F6D41FB1E86920F08050E86162
:10116000E06988B36968C1F38101022944D002288B
:10117000C6F8608004D0FFF7A7FC044638E034E0EE
:10118000FFF7A2FC074604E0FFF79EFCC01B022805
:101190002BD828688001F7D4206AB0F5803F05D1AC
:1011A0006868A16820F4003008436860D4E9080149
:1011B0000843696821F4741108436860C6F86090B8
:1011C000FFF782FC044606E025E000BFFFF77CFC49
:1011D000001B022809D828688001F7D51BE000BF52
:1011E000FFF772FC001B022802D90320BDE8F88F2C
:1011F00028688001F4D40EE00128F7D06868226ADC
:1012000000F48031914204D1616A00F47010884288
:1012100001D00120EAE70020E8E7000000100240CA
:10122000000042428004424218000020007000404A
:1012300010B5401EB0F1807F01D3012010BD4FF0EA
:10124000E02460610F21601700F074FC0020A061B1
:1012500007202061002010BD70B590F83C20012AC5
:1012600026D0012480F83C40022280F83D2003680B
:101270005A689D6822F070060A6832435A600D4B26
:1012800002689A4208D0B2F1804F05D00A4B9A42C8
:1012900002D00A4B9A4204D1496825F080031943D1
:1012A000916080F83D40002180F83C10084670BDF8
:1012B000022070BD002C01400004004000080040E6
:1012C00010B5040003D094F83D0010B107E00120F0
:1012D00010BD002084F83C00204600F01FF80220DA
:1012E00084F83D00211D206800F002FB012084F8F5
:1012F000460084F83E0084F83F0084F8400084F8FB
:10130000410084F8420084F8430084F8440084F8E3
:10131000450084F83D00002010BD000008B50C4ACF
:1013200001680C48914207D1C16941F00201C161D5
:10133000C06900F0020009E0074A914207D1C16983
:1013400041F00401C161C06900F00400009008BDD3
:1013500000040040001002400008004090F83D10DA
:10136000012901D001207047022180F83D1000685A
:101370000B49884208D0B0F1804F05D00949884216
:1013800002D00949884204D1816801F00701062989
:1013900003D0016841F001010160002070470000A6
:1013A000002C0140000400400008004070B50446D5
:1013B00090F83C000025012817D0012684F83C60F5
:1013C000022084F83D002068826822F0770222F42F
:1013D0007F4282600868502838D00DDC20284FD02A
:1013E00005DC90B3102811D14AE0022070BD3028EE
:1013F00046D040280AD13BE060282FD070280DD07D
:10140000B0F5805F03D0B0F5005F12D0012584F8FD
:101410003D60002084F83C00284670BDCB68D1E9CF
:101420000121206800F0ADFA2068816841F0770161
:1014300009E0CB68D1E90121206800F0A2FA206818
:10144000816841F480418160E1E719E0CA68496838
:10145000206800F04BFB5021206806E0CA6849680C
:10146000206800F054FB6021206800F094FACEE779
:10147000CA684968206800F039FB40212068F4E719
:10148000226801461046F0E700B585B000210091C2
:1014900001910291039100680B49884211D10B48D8
:1014A000816941F0040181618069694600F00400AE
:1014B0000490402000900220019003900448FFF720
:1014C00013FA05B000BD0000000400400010024007
:1014D0000008014070B5044690F83C0000260D4617
:1014E00001280FD0012084F83C006AB1042A1DD0E5
:1014F000082A2FD00C2A3FD00126002084F83C0077
:10150000304670BD022070BD206800F04DFA2068A2
:10151000816941F0080181612068816921F004013D
:101520008161206881692A69114311E0206800F017
:1015300063FA2068816941F40061816120688169F2
:1015400021F480618161206881692A6941EA022170
:101550008161D2E7206800F07BFA2068C16941F020
:101560000801C1612068C16921F00401C1612068DE
:10157000C1692A69114311E0206800F095FA2068DA
:10158000C16941F40061C1612068C16921F48061D1
:10159000C1612068C1692A6941EA0221C161ACE7E1
:1015A00010B5040003D094F83D0010B107E001200D
:1015B00010BD002084F83C00204600F01EF80220F8
:1015C00084F83D00211D206800F092F9012084F884
:1015D000460084F83E0084F83F0084F8400084F818
:1015E000410084F8420084F8430084F8440084F801
:1015F000450084F83D00002010BD704710B504463A
:10160000022249B104290ED0082913D094F84100D0
:10161000012816D0012010BD94F83E000128F9D110
:1016200084F83E200FE094F83F000128F2D184F8BE
:101630003F2008E094F840000128EBD184F84020D6
:1016400001E084F841200122206800F08DF90F4963
:101650002068884203D1426C42F400424264206810
:10166000884208D0B0F1804F05D00949884202D0A5
:101670000849884204D1816801F00701062903D096
:10168000016841F001010160002010BD002C014003
:101690000004004000080040FEE700003EB50024C2
:1016A00011480094019402940E4984600160012560
:1016B0000573047505614FF460214460C161FEF754
:1016C00043FF08B1FEF750FE0320CDE9000569464F
:1016D00002940548FEF7B6FE002801D0FEF744FE4E
:1016E0003EBD0000002401401C0000203EB5002447
:1016F00010480094019402940D4984600160012512
:101700000573047505614FF460214460C161FEF703
:101710001BFF08B1FEF728FE0095CDE9015469468C
:101720000448FEF78FFE002801D0FEF71DFE3EBDE7
:10173000002801404C000020094808B5816941F0AB
:1017400020018161816901F020010091816941F0EE
:1017500004018161806900F00400009008BD000070
:101760000010024010B58EB000240794089409942C
:101770000A940B941C2168460C94FEF725FD1E4824
:101780001C4901604721C0E9011440F6FF71C0E91E
:1017900003148461FFF794FD08B1FEF7E5FD4FF4F3
:1017A0008050079007A91448FFF700FE08B1FEF724
:1017B000DBFD1148FFF7F4FE08B1FEF7D5FD0B94F1
:1017C0000BA90D480C94FFF747FD08B1FEF7CCFDBF
:1017D0006020CDE900040294002269460648049482
:1017E000FFF778FE08B1FEF7BFFD0348FFF74CFE98
:1017F0000EB010BD000400407C00002010B586B083
:101800000024184800940194029403940494144909
:10181000059401604CF60A61C0E9011440F254518C
:10182000C0E9031480218161FFF74AFD08B1FEF78A
:101830009BFD4FF48050009069460A48FFF7B6FDC3
:1018400008B1FEF791FD049404A906480594FFF73A
:1018500003FD002801D0FEF787FD06B010BD000093
:1018600000080040C4000020FEE7FEE77047704714
:10187000FFF730B930B593B028216846FEF7A4FCD5
:1018800014210AA8FEF7A0FC002501200F95109551
:101890001195010412958DE8230004904FF4E01097
:1018A000CDE90810022407946846FFF731FB08B120
:1018B00072B6FEE70AA90F2081E831004FF480607C
:1018C000CDE90D0502210AA8FFF756FA08B172B654
:1018D000FEE74FF4004011900F940FA8FFF7D6F9E0
:1018E000002801D072B6FEE713B030BD704700008B
:1018F000F0B50268194B1A4C1A4D4FF080479842C8
:1019000005D0B84203D0A04201D0A84203D122F0B2
:1019100070064A683243984205D0B84203D0A042CC
:1019200001D0A84203D122F44074CA6822434C6912
:1019300022F08002224302608A68C2620A688262E0
:10194000984201D109690163012141610169C90717
:1019500003D0016921F001010161F0BD002C0140BB
:10196000000400400008004010B501F01F030121F1
:10197000046A99408C430462016A9A4011430162EF
:1019800010BD10B5846842EA032224F47F440A4360
:101990002243826010BD826822F070020A4342F046
:1019A000070181607047000030B5036A026A22F0C7
:1019B000010202624268846924F073050C682C43BA
:1019C00023F002058B682B430A4DA8420BD123F06C
:1019D0000805CB6822F440722B434D6923F00403C1
:1019E00015438A692A4342608461496841630362FE
:1019F00030BD0000002C014030B5026A036A23F0BC
:101A000010030362436884690D6824F4E64444EAE1
:101A100005248D6822F0200242EA05120B4DA842EF
:101A20000ED1CD6822F0800242EA05124D6923F4FE
:101A3000406343EA85038D6922F0400243EA85034F
:101A40004360846149688163026230BD002C0140BB
:101A500030B5036A026A22F4807202624268C46985
:101A600023F4007324F073050C682C438D6843EA5B
:101A700005230C4DA8420ED1CD6823F4006343EA40
:101A800005234D6922F4405242EA05128D6923F480
:101A9000806342EA05124260C4614968C16303621F
:101AA00030BD0000002C014030B5046A026A22F407
:101AB000805202624268C3690D6823F4E64343EA38
:101AC00005238D6824F4005444EA0534064DA842E9
:101AD00004D14D6922F4804242EA85124260C3611A
:101AE00049680164046230BD002C014010B5036AEE
:101AF000046A24F001040462846924F0F00444EAD6
:101B0000021423F00A020A438461026210BD10B578
:101B1000036A046A24F010040462846923F0A003B9
:101B200024F4704444EA023243EA01118261016202
:101B300010BDFEE70907090E002804DB00F1E020D4
:101B400080F80014704700F00F0000F1E02080F8EA
:101B5000141D7047FEF7C6FFFFF78CFEFFF7ECFD84
:101B6000FFF79CFDFFF7FEFDFFF748FEFFF7BEFD08
:101B70001D48FEF7FBFB1C48FEF756FE4FF0FF34F6
:101B800021461948FEF7B2FD1848FEF7EFFB17484B
:101B9000FEF74AFE21461548FEF7A8FD002114482D
:101BA000FFF72CFD1348FFF7D9FB124D124C104ED6
:101BB00000270D48FEF7C4FC20600C48FEF7C0FC6F
:101BC0006060296800F25550C862E8602968496A77
:101BD000A160B1EB600F03DC316820684863E8E77F
:101BE00030684763E5E700001C0000204C0000203F
:101BF0007C000020C400002000000020010202033D
:101C00000405060708090A0B0C0D0E0F101001023F
:101C100002030405060708090A0B0C0D0E0F10102D
:101C2000000000000000000001020304060708098C
:101C30000000000001020304581C000800000020FE
:101C40001C00000028010008741C00081C00002073
:101C500054070000440100080000000000000000DC
:101C60000000000001000000100000000000000063
:041C700000127A00E4
:04000005080000ED02
:00000001FF
